{
  "contractName": "Adoption",
  "abi": [
    {
      "constant": true,
      "inputs": [
        {
          "internalType": "uint256",
          "name": "",
          "type": "uint256"
        }
      ],
      "name": "adopters",
      "outputs": [
        {
          "internalType": "address",
          "name": "",
          "type": "address"
        }
      ],
      "payable": false,
      "stateMutability": "view",
      "type": "function"
    },
    {
      "constant": true,
      "inputs": [],
      "name": "counter",
      "outputs": [
        {
          "internalType": "uint256",
          "name": "",
          "type": "uint256"
        }
      ],
      "payable": false,
      "stateMutability": "view",
      "type": "function"
    },
    {
      "constant": false,
      "inputs": [],
      "name": "addCounter",
      "outputs": [
        {
          "internalType": "uint256",
          "name": "",
          "type": "uint256"
        }
      ],
      "payable": false,
      "stateMutability": "nonpayable",
      "type": "function"
    },
    {
      "constant": false,
      "inputs": [
        {
          "internalType": "uint256",
          "name": "petId",
          "type": "uint256"
        }
      ],
      "name": "adopt",
      "outputs": [
        {
          "internalType": "uint256",
          "name": "",
          "type": "uint256"
        }
      ],
      "payable": false,
      "stateMutability": "nonpayable",
      "type": "function"
    },
    {
      "constant": true,
      "inputs": [],
      "name": "getAdopters",
      "outputs": [
        {
          "internalType": "address[16]",
          "name": "",
          "type": "address[16]"
        }
      ],
      "payable": false,
      "stateMutability": "view",
      "type": "function"
    }
  ],
  "bytecode": "0x6080604052600060105534801561001557600080fd5b50610390806100256000396000f3fe608060405234801561001057600080fd5b50600436106100575760003560e01c806308615e551461005c5780633de4eb171461007a57806343ae80d3146100c057806361bc221a1461012e5780638588b2c51461014c575b600080fd5b61006461018e565b6040518082815260200191505060405180910390f35b6100826101a4565b6040518082601060200280838360005b838110156100ad578082015181840152602081019050610092565b5050505090500191505060405180910390f35b6100ec600480360360208110156100d657600080fd5b8101908080359060200190929190505050610225565b604051808273ffffffffffffffffffffffffffffffffffffffff1673ffffffffffffffffffffffffffffffffffffffff16815260200191505060405180910390f35b610136610258565b6040518082815260200191505060405180910390f35b6101786004803603602081101561016257600080fd5b810190808035906020019092919050505061025e565b6040518082815260200191505060405180910390f35b6000601060008154600101919050819055905090565b6101ac610338565b600060108060200260405190810160405280929190826010801561021b576020028201915b8160009054906101000a900473ffffffffffffffffffffffffffffffffffffffff1673ffffffffffffffffffffffffffffffffffffffff16815260200190600101908083116101d1575b5050505050905090565b6000816010811061023257fe5b016000915054906101000a900473ffffffffffffffffffffffffffffffffffffffff1681565b60105481565b60008082101580156102715750600f8211155b6102e3576040517f08c379a000000000000000000000000000000000000000000000000000000000815260040180806020018281038252600e8152602001807f7065744964206e6f74207472756500000000000000000000000000000000000081525060200191505060405180910390fd5b33600083601081106102f157fe5b0160006101000a81548173ffffffffffffffffffffffffffffffffffffffff021916908373ffffffffffffffffffffffffffffffffffffffff160217905550819050919050565b60405180610200016040528060109060208202803883398082019150509050509056fea265627a7a72315820887de17fc264379df3fb2a1be59061cb6ab4739004d7eb0282140b2f4032b73564736f6c63430005100032",
  "source": "pragma solidity >=0.4.21 <0.7.0;\n\ncontract Adoption {\n    address[16] public adopters;\n    uint256 public counter = 0;\n    function addCounter() public returns (uint256){\n        return ++counter;\n    }\n    // Adopting a pet\n    function adopt(uint256 petId) public returns (uint256) {\n        require(petId >= 0 && petId <= 15, \"petId not true\");\n        adopters[petId] = msg.sender;\n\n        return petId;\n    }\n    // Retrieving the adopters\n    function getAdopters() public view returns (address[16] memory) {\n        return adopters;\n    }\n}\n",
  "sourcePath": "/home/nauynehsh/Desktop/BlockChain/pet-shop-tutorial/contracts/Adoption.sol",
  "compiler": {
    "name": "solc",
    "version": "0.5.16+commit.9c3226ce.Emscripten.clang"
  },
  "schemaVersion": "3.0.23",
  "updatedAt": "2020-02-29T21:13:16.529Z",
  "networkType": "ethereum",
  "devdoc": {
    "methods": {}
  },
  "userdoc": {
    "methods": {}
  }
}